{
  "_format": "hh-sol-artifact-1",
  "contractName": "VotingSystem",
  "sourceName": "contracts/VotingSystem.sol",
  "abi": [
    {
      "anonymous": false,
      "inputs": [
        {
          "indexed": false,
          "internalType": "uint256",
          "name": "pollId",
          "type": "uint256"
        },
        {
          "indexed": false,
          "internalType": "string",
          "name": "title",
          "type": "string"
        },
        {
          "indexed": false,
          "internalType": "string[]",
          "name": "options",
          "type": "string[]"
        }
      ],
      "name": "PollCreated",
      "type": "event"
    },
    {
      "anonymous": false,
      "inputs": [
        {
          "indexed": false,
          "internalType": "uint256",
          "name": "pollId",
          "type": "uint256"
        },
        {
          "indexed": false,
          "internalType": "address",
          "name": "voter",
          "type": "address"
        },
        {
          "indexed": false,
          "internalType": "uint256",
          "name": "option",
          "type": "uint256"
        }
      ],
      "name": "Voted",
      "type": "event"
    },
    {
      "inputs": [
        {
          "internalType": "string",
          "name": "_title",
          "type": "string"
        },
        {
          "internalType": "string[]",
          "name": "_options",
          "type": "string[]"
        }
      ],
      "name": "createPoll",
      "outputs": [
        {
          "internalType": "uint256",
          "name": "",
          "type": "uint256"
        }
      ],
      "stateMutability": "nonpayable",
      "type": "function"
    },
    {
      "inputs": [
        {
          "internalType": "uint256",
          "name": "_pollId",
          "type": "uint256"
        }
      ],
      "name": "getPollDetails",
      "outputs": [
        {
          "internalType": "string",
          "name": "title",
          "type": "string"
        },
        {
          "internalType": "string[]",
          "name": "options",
          "type": "string[]"
        },
        {
          "internalType": "bool",
          "name": "exists",
          "type": "bool"
        }
      ],
      "stateMutability": "view",
      "type": "function"
    },
    {
      "inputs": [
        {
          "internalType": "uint256",
          "name": "_pollId",
          "type": "uint256"
        },
        {
          "internalType": "uint256",
          "name": "_optionIndex",
          "type": "uint256"
        }
      ],
      "name": "getVoteCount",
      "outputs": [
        {
          "internalType": "uint256",
          "name": "",
          "type": "uint256"
        }
      ],
      "stateMutability": "view",
      "type": "function"
    },
    {
      "inputs": [
        {
          "internalType": "uint256",
          "name": "_pollId",
          "type": "uint256"
        },
        {
          "internalType": "address",
          "name": "_voter",
          "type": "address"
        }
      ],
      "name": "hasVoted",
      "outputs": [
        {
          "internalType": "bool",
          "name": "",
          "type": "bool"
        }
      ],
      "stateMutability": "view",
      "type": "function"
    },
    {
      "inputs": [],
      "name": "pollCount",
      "outputs": [
        {
          "internalType": "uint256",
          "name": "",
          "type": "uint256"
        }
      ],
      "stateMutability": "view",
      "type": "function"
    },
    {
      "inputs": [
        {
          "internalType": "uint256",
          "name": "",
          "type": "uint256"
        }
      ],
      "name": "polls",
      "outputs": [
        {
          "internalType": "string",
          "name": "title",
          "type": "string"
        },
        {
          "internalType": "bool",
          "name": "exists",
          "type": "bool"
        }
      ],
      "stateMutability": "view",
      "type": "function"
    },
    {
      "inputs": [
        {
          "internalType": "uint256",
          "name": "_pollId",
          "type": "uint256"
        },
        {
          "internalType": "uint256",
          "name": "_optionIndex",
          "type": "uint256"
        }
      ],
      "name": "vote",
      "outputs": [],
      "stateMutability": "nonpayable",
      "type": "function"
    }
  ],
  "bytecode": "0x608060405234801561001057600080fd5b50611692806100206000396000f3fe608060405234801561001057600080fd5b506004361061007d5760003560e01c80639a0040e41161005b5780639a0040e414610100578063ac2f007414610132578063b384abef14610163578063de2e19a01461017f5761007d565b806343859632146100825780637e3d71c3146100b25780639207891d146100e2575b600080fd5b61009c60048036038101906100979190610af5565b6101af565b6040516100a99190610b50565b60405180910390f35b6100cc60048036038101906100c79190610d97565b61027b565b6040516100d99190610e1e565b60405180910390f35b6100ea610381565b6040516100f79190610e1e565b60405180910390f35b61011a60048036038101906101159190610e39565b610387565b60405161012993929190610ff1565b60405180910390f35b61014c60048036038101906101479190610e39565b61058b565b60405161015a929190611036565b60405180910390f35b61017d60048036038101906101789190611066565b610644565b005b61019960048036038101906101949190611066565b610886565b6040516101a69190610e1e565b60405180910390f35b600080600084815260200190815260200160002060020160009054906101000a900460ff16610213576040517f08c379a000000000000000000000000000000000000000000000000000000000815260040161020a906110f2565b60405180910390fd5b60008084815260200190815260200160002060030160008373ffffffffffffffffffffffffffffffffffffffff1673ffffffffffffffffffffffffffffffffffffffff16815260200190815260200160002060009054906101000a900460ff16905092915050565b60006002825110156102c2576040517f08c379a00000000000000000000000000000000000000000000000000000000081526004016102b990611184565b60405180910390fd5b6000600160008154809291906102d7906111d3565b91905055905060008060008381526020019081526020016000209050848160000190816103049190611427565b508381600101908051906020019061031d929190610973565b5060018160020160006101000a81548160ff0219169083151502179055507f4be3f505bf50604bde92e6940e2df40c36f90cb362640413d520080ca12eabb282868660405161036e939291906114f9565b60405180910390a1819250505092915050565b60015481565b606080600080600085815260200190815260200160002060020160009054906101000a900460ff166103ee576040517f08c379a00000000000000000000000000000000000000000000000000000000081526004016103e5906110f2565b60405180910390fd5b6000806000868152602001908152602001600020905080600001816001018260020160009054906101000a900460ff1682805461042a9061124a565b80601f01602080910402602001604051908101604052809291908181526020018280546104569061124a565b80156104a35780601f10610478576101008083540402835291602001916104a3565b820191906000526020600020905b81548152906001019060200180831161048657829003601f168201915b5050505050925081805480602002602001604051908101604052809291908181526020016000905b828210156105775783829060005260206000200180546104ea9061124a565b80601f01602080910402602001604051908101604052809291908181526020018280546105169061124a565b80156105635780601f1061053857610100808354040283529160200191610563565b820191906000526020600020905b81548152906001019060200180831161054657829003601f168201915b5050505050815260200190600101906104cb565b505050509150935093509350509193909250565b60006020528060005260406000206000915090508060000180546105ae9061124a565b80601f01602080910402602001604051908101604052809291908181526020018280546105da9061124a565b80156106275780601f106105fc57610100808354040283529160200191610627565b820191906000526020600020905b81548152906001019060200180831161060a57829003601f168201915b5050505050908060020160009054906101000a900460ff16905082565b60008083815260200190815260200160002060020160009054906101000a900460ff166106a6576040517f08c379a000000000000000000000000000000000000000000000000000000000815260040161069d906110f2565b60405180910390fd5b60008083815260200190815260200160002060030160003373ffffffffffffffffffffffffffffffffffffffff1673ffffffffffffffffffffffffffffffffffffffff16815260200190815260200160002060009054906101000a900460ff1615610746576040517f08c379a000000000000000000000000000000000000000000000000000000000815260040161073d9061158a565b60405180910390fd5b6000808381526020019081526020016000206001018054905081106107a0576040517f08c379a0000000000000000000000000000000000000000000000000000000008152600401610797906115f6565b60405180910390fd5b600160008084815260200190815260200160002060030160003373ffffffffffffffffffffffffffffffffffffffff1673ffffffffffffffffffffffffffffffffffffffff16815260200190815260200160002060006101000a81548160ff02191690831515021790555060008083815260200190815260200160002060040160008281526020019081526020016000206000815480929190610842906111d3565b91905055507f1abe610cf2bf87e57dcc1181fcf5ac0934e843d8344ab9eed6e86c799f62585e82338360405161087a93929190611625565b60405180910390a15050565b600080600084815260200190815260200160002060020160009054906101000a900460ff166108ea576040517f08c379a00000000000000000000000000000000000000000000000000000000081526004016108e1906110f2565b60405180910390fd5b600080848152602001908152602001600020600101805490508210610944576040517f08c379a000000000000000000000000000000000000000000000000000000000815260040161093b906115f6565b60405180910390fd5b600080848152602001908152602001600020600401600083815260200190815260200160002054905092915050565b8280548282559060005260206000209081019282156109bb579160200282015b828111156109ba5782518290816109aa9190611427565b5091602001919060010190610993565b5b5090506109c891906109cc565b5090565b5b808211156109ec57600081816109e391906109f0565b506001016109cd565b5090565b5080546109fc9061124a565b6000825580601f10610a0e5750610a2d565b601f016020900490600052602060002090810190610a2c9190610a30565b5b50565b5b80821115610a49576000816000905550600101610a31565b5090565b6000604051905090565b600080fd5b600080fd5b6000819050919050565b610a7481610a61565b8114610a7f57600080fd5b50565b600081359050610a9181610a6b565b92915050565b600073ffffffffffffffffffffffffffffffffffffffff82169050919050565b6000610ac282610a97565b9050919050565b610ad281610ab7565b8114610add57600080fd5b50565b600081359050610aef81610ac9565b92915050565b60008060408385031215610b0c57610b0b610a57565b5b6000610b1a85828601610a82565b9250506020610b2b85828601610ae0565b9150509250929050565b60008115159050919050565b610b4a81610b35565b82525050565b6000602082019050610b656000830184610b41565b92915050565b600080fd5b600080fd5b6000601f19601f8301169050919050565b7f4e487b7100000000000000000000000000000000000000000000000000000000600052604160045260246000fd5b610bbe82610b75565b810181811067ffffffffffffffff82111715610bdd57610bdc610b86565b5b80604052505050565b6000610bf0610a4d565b9050610bfc8282610bb5565b919050565b600067ffffffffffffffff821115610c1c57610c1b610b86565b5b610c2582610b75565b9050602081019050919050565b82818337600083830152505050565b6000610c54610c4f84610c01565b610be6565b905082815260208101848484011115610c7057610c6f610b70565b5b610c7b848285610c32565b509392505050565b600082601f830112610c9857610c97610b6b565b5b8135610ca8848260208601610c41565b91505092915050565b600067ffffffffffffffff821115610ccc57610ccb610b86565b5b602082029050602081019050919050565b600080fd5b6000610cf5610cf084610cb1565b610be6565b90508083825260208201905060208402830185811115610d1857610d17610cdd565b5b835b81811015610d5f57803567ffffffffffffffff811115610d3d57610d3c610b6b565b5b808601610d4a8982610c83565b85526020850194505050602081019050610d1a565b5050509392505050565b600082601f830112610d7e57610d7d610b6b565b5b8135610d8e848260208601610ce2565b91505092915050565b60008060408385031215610dae57610dad610a57565b5b600083013567ffffffffffffffff811115610dcc57610dcb610a5c565b5b610dd885828601610c83565b925050602083013567ffffffffffffffff811115610df957610df8610a5c565b5b610e0585828601610d69565b9150509250929050565b610e1881610a61565b82525050565b6000602082019050610e336000830184610e0f565b92915050565b600060208284031215610e4f57610e4e610a57565b5b6000610e5d84828501610a82565b91505092915050565b600081519050919050565b600082825260208201905092915050565b60005b83811015610ea0578082015181840152602081019050610e85565b60008484015250505050565b6000610eb782610e66565b610ec18185610e71565b9350610ed1818560208601610e82565b610eda81610b75565b840191505092915050565b600081519050919050565b600082825260208201905092915050565b6000819050602082019050919050565b600082825260208201905092915050565b6000610f2d82610e66565b610f378185610f11565b9350610f47818560208601610e82565b610f5081610b75565b840191505092915050565b6000610f678383610f22565b905092915050565b6000602082019050919050565b6000610f8782610ee5565b610f918185610ef0565b935083602082028501610fa385610f01565b8060005b85811015610fdf5784840389528151610fc08582610f5b565b9450610fcb83610f6f565b925060208a01995050600181019050610fa7565b50829750879550505050505092915050565b6000606082019050818103600083015261100b8186610eac565b9050818103602083015261101f8185610f7c565b905061102e6040830184610b41565b949350505050565b600060408201905081810360008301526110508185610eac565b905061105f6020830184610b41565b9392505050565b6000806040838503121561107d5761107c610a57565b5b600061108b85828601610a82565b925050602061109c85828601610a82565b9150509250929050565b7f506f6c6c20646f6573206e6f7420657869737400000000000000000000000000600082015250565b60006110dc601383610e71565b91506110e7826110a6565b602082019050919050565b6000602082019050818103600083015261110b816110cf565b9050919050565b7f4174206c656173742074776f206f7074696f6e7320617265207265717569726560008201527f6400000000000000000000000000000000000000000000000000000000000000602082015250565b600061116e602183610e71565b915061117982611112565b604082019050919050565b6000602082019050818103600083015261119d81611161565b9050919050565b7f4e487b7100000000000000000000000000000000000000000000000000000000600052601160045260246000fd5b60006111de82610a61565b91507fffffffffffffffffffffffffffffffffffffffffffffffffffffffffffffffff82036112105761120f6111a4565b5b600182019050919050565b7f4e487b7100000000000000000000000000000000000000000000000000000000600052602260045260246000fd5b6000600282049050600182168061126257607f821691505b6020821081036112755761127461121b565b5b50919050565b60008190508160005260206000209050919050565b60006020601f8301049050919050565b600082821b905092915050565b6000600883026112dd7fffffffffffffffffffffffffffffffffffffffffffffffffffffffffffffffff826112a0565b6112e786836112a0565b95508019841693508086168417925050509392505050565b6000819050919050565b600061132461131f61131a84610a61565b6112ff565b610a61565b9050919050565b6000819050919050565b61133e83611309565b61135261134a8261132b565b8484546112ad565b825550505050565b600090565b61136761135a565b611372818484611335565b505050565b5b818110156113965761138b60008261135f565b600181019050611378565b5050565b601f8211156113db576113ac8161127b565b6113b584611290565b810160208510156113c4578190505b6113d86113d085611290565b830182611377565b50505b505050565b600082821c905092915050565b60006113fe600019846008026113e0565b1980831691505092915050565b600061141783836113ed565b9150826002028217905092915050565b61143082610e66565b67ffffffffffffffff81111561144957611448610b86565b5b611453825461124a565b61145e82828561139a565b600060209050601f831160018114611491576000841561147f578287015190505b611489858261140b565b8655506114f1565b601f19841661149f8661127b565b60005b828110156114c7578489015182556001820191506020850194506020810190506114a2565b868310156114e457848901516114e0601f8916826113ed565b8355505b6001600288020188555050505b505050505050565b600060608201905061150e6000830186610e0f565b81810360208301526115208185610eac565b905081810360408301526115348184610f7c565b9050949350505050565b7f416c726561647920766f74656400000000000000000000000000000000000000600082015250565b6000611574600d83610e71565b915061157f8261153e565b602082019050919050565b600060208201905081810360008301526115a381611567565b9050919050565b7f496e76616c6964206f7074696f6e000000000000000000000000000000000000600082015250565b60006115e0600e83610e71565b91506115eb826115aa565b602082019050919050565b6000602082019050818103600083015261160f816115d3565b9050919050565b61161f81610ab7565b82525050565b600060608201905061163a6000830186610e0f565b6116476020830185611616565b6116546040830184610e0f565b94935050505056fea2646970667358221220c7a258d9d90fbe1aff8862a77725469ecb9af8a86f62715d872bc32c37aba37b64736f6c63430008130033",
  "linkReferences": {},
  "deployedLinkReferences": {}
}